S01000005541525470726F6A2E737265631D
S11300000C942A000C9434000C9434000C943400A6
S11300100C9434000C9434000C9434000C9434008C
S11300200C9434000C9434000C9434000C9434007C
S11300300C9434000C9434000C9434000C9434006C
S11300400C9434000C9434000C9434000C9434005C
S11300500C94340011241FBECFE5D8E0DEBFCDBF21
S11300600E9448000C945C000C9400005D9BFECF41
S11300708CB908951BB81AB810BC599A8AB1886112
S11300808AB980B5866880BD8FEB89B910BC0895A4
S11300900E943A0081E084BB15BA8BB18CB12FEF7A
S11300A03FE794E0215030409040E1F700C0000069
S10F00B090E00E943600F1CFF894FFCFDE
S9030000FC
